{
  "abi": [
    {
      "type": "constructor",
      "inputs": [
        {
          "name": "_settlementContract",
          "type": "address",
          "internalType": "address"
        }
      ],
      "stateMutability": "nonpayable"
    },
    {
      "type": "function",
      "name": "ARBITRUM_SEPOLIA_CHAIN_ID",
      "inputs": [],
      "outputs": [
        {
          "name": "",
          "type": "uint256",
          "internalType": "uint256"
        }
      ],
      "stateMutability": "view"
    },
    {
      "type": "function",
      "name": "LIBERICHAIN_CHAIN_ID",
      "inputs": [],
      "outputs": [
        {
          "name": "",
          "type": "uint256",
          "internalType": "uint256"
        }
      ],
      "stateMutability": "view"
    },
    {
      "type": "function",
      "name": "lockedTokens",
      "inputs": [
        {
          "name": "",
          "type": "bytes32",
          "internalType": "bytes32"
        }
      ],
      "outputs": [
        {
          "name": "",
          "type": "uint256",
          "internalType": "uint256"
        }
      ],
      "stateMutability": "view"
    },
    {
      "type": "function",
      "name": "settlementContract",
      "inputs": [],
      "outputs": [
        {
          "name": "",
          "type": "address",
          "internalType": "address"
        }
      ],
      "stateMutability": "view"
    },
    {
      "type": "function",
      "name": "submitIntent",
      "inputs": [
        {
          "name": "_token",
          "type": "address",
          "internalType": "address"
        },
        {
          "name": "_amount",
          "type": "uint256",
          "internalType": "uint256"
        },
        {
          "name": "_originChain",
          "type": "uint256",
          "internalType": "uint256"
        },
        {
          "name": "_destinationChainId",
          "type": "uint32",
          "internalType": "uint32"
        },
        {
          "name": "_deadline",
          "type": "uint256",
          "internalType": "uint256"
        },
        {
          "name": "_minReceived",
          "type": "uint256",
          "internalType": "uint256"
        }
      ],
      "outputs": [
        {
          "name": "",
          "type": "bytes32",
          "internalType": "bytes32"
        }
      ],
      "stateMutability": "nonpayable"
    },
    {
      "type": "event",
      "name": "IntentSubmitted",
      "inputs": [
        {
          "name": "intentId",
          "type": "bytes32",
          "indexed": true,
          "internalType": "bytes32"
        },
        {
          "name": "user",
          "type": "address",
          "indexed": false,
          "internalType": "address"
        },
        {
          "name": "token",
          "type": "address",
          "indexed": false,
          "internalType": "address"
        },
        {
          "name": "amount",
          "type": "uint256",
          "indexed": false,
          "internalType": "uint256"
        },
        {
          "name": "sourceChainId",
          "type": "uint256",
          "indexed": false,
          "internalType": "uint256"
        },
        {
          "name": "destinationChainId",
          "type": "uint32",
          "indexed": false,
          "internalType": "uint32"
        },
        {
          "name": "deadline",
          "type": "uint256",
          "indexed": false,
          "internalType": "uint256"
        },
        {
          "name": "minReceived",
          "type": "uint256",
          "indexed": false,
          "internalType": "uint256"
        }
      ],
      "anonymous": false
    },
    {
      "type": "error",
      "name": "IntentExpired",
      "inputs": []
    },
    {
      "type": "error",
      "name": "InvalidMinReceived",
      "inputs": []
    },
    {
      "type": "error",
      "name": "InvalidSourceChain",
      "inputs": []
    },
    {
      "type": "error",
      "name": "TransferFailed",
      "inputs": []
    }
  ],
  "bytecode": {
    "object": "0x608034606f57601f61039f38819003918201601f19168301916001600160401b03831184841017607357808492602094604052833981010312606f57516001600160a01b03811690819003606f575f80546001600160a01b03191691909117905560405161031790816100888239f35b5f80fd5b634e487b7160e01b5f52604160045260245ffdfe6080604081815260049182361015610015575f80fd5b5f3560e01c9081631fab59fb146102c6575080634612b553146102a9578063e8d3358814610282578063ea42418b1461025b5763f55917bd14610056575f80fd5b346102135760c03660031901126102135781356001600160a01b038116929083900361021357602435926044359060643563ffffffff8116809103610213576084359060a435934283111561024b57841561023b5786516323b872dd60e01b81523387820152306024820152604481018990526020989089816064815f8a5af1908115610231575f916101cd575b50156101bd57875194898601338152818a8801528260608801528360808801528460a08801528560c08801528760e088015261010042818901528752610120870198878a1067ffffffffffffffff8b11176101aa57509488948b98946101e0947fb2580ed4d5f766c5c3149aeaf1e127fc823161194a602309981b1bfc59e4bae5999460e0998e9d60019f52865190209d8e9c8d5f5252818d5f20553389526101408601526101608501526101808401526101a08301526101c08201520152a251908152f35b604190634e487b7160e01b5f525260245ffd5b87516312171d8360e31b81528790fd5b9050893d8b1161022a575b601f8101601f1916820167ffffffffffffffff811183821017610217578b9183918c528101031261021357518015158103610213575f6100e4565b5f80fd5b60418a634e487b7160e01b5f525260245ffd5b503d6101d8565b89513d5f823e3d90fd5b86516357c0eded60e11b81528690fd5b8651631022c88d60e21b81528690fd5b5034610213575f366003190112610213575f5490516001600160a01b039091168152602090f35b503461021357602036600319011261021357602091355f5260018252805f20549051908152f35b5034610213575f36600319011261021357602090516218a48e8152f35b34610213575f366003190112610213578062066eee60209252f3fea2646970667358221220eeff213917096e9286251588819a1aef1e5f6c145d0d26ea9e597ac2e25b355964736f6c63430008190033",
    "linkReferences": {}
  },
  "methodIdentifiers": {
    "ARBITRUM_SEPOLIA_CHAIN_ID()": "1fab59fb",
    "LIBERICHAIN_CHAIN_ID()": "4612b553",
    "lockedTokens(bytes32)": "e8d33588",
    "settlementContract()": "ea42418b",
    "submitIntent(address,uint256,uint256,uint32,uint256,uint256)": "f55917bd"
  },
  "id": 27
}