{
  "abi": [
    {
      "type": "constructor",
      "inputs": [
        {
          "name": "_mailbox",
          "type": "address",
          "internalType": "address"
        }
      ],
      "stateMutability": "nonpayable"
    },
    {
      "type": "function",
      "name": "fulfillIntent",
      "inputs": [
        {
          "name": "intentId",
          "type": "bytes32",
          "internalType": "bytes32"
        },
        {
          "name": "solver",
          "type": "address",
          "internalType": "address"
        }
      ],
      "outputs": [],
      "stateMutability": "nonpayable"
    },
    {
      "type": "function",
      "name": "fulfilledIntents",
      "inputs": [
        {
          "name": "",
          "type": "bytes32",
          "internalType": "bytes32"
        }
      ],
      "outputs": [
        {
          "name": "",
          "type": "bool",
          "internalType": "bool"
        }
      ],
      "stateMutability": "view"
    },
    {
      "type": "function",
      "name": "handle",
      "inputs": [
        {
          "name": "_origin",
          "type": "uint32",
          "internalType": "uint32"
        },
        {
          "name": "_sender",
          "type": "bytes32",
          "internalType": "bytes32"
        },
        {
          "name": "_message",
          "type": "bytes",
          "internalType": "bytes"
        }
      ],
      "outputs": [],
      "stateMutability": "payable"
    },
    {
      "type": "function",
      "name": "intents",
      "inputs": [
        {
          "name": "",
          "type": "bytes32",
          "internalType": "bytes32"
        }
      ],
      "outputs": [
        {
          "name": "user",
          "type": "address",
          "internalType": "address"
        },
        {
          "name": "token",
          "type": "address",
          "internalType": "address"
        },
        {
          "name": "amount",
          "type": "uint256",
          "internalType": "uint256"
        },
        {
          "name": "sourceChainId",
          "type": "uint32",
          "internalType": "uint32"
        },
        {
          "name": "destinationChainId",
          "type": "uint32",
          "internalType": "uint32"
        },
        {
          "name": "deadline",
          "type": "uint256",
          "internalType": "uint256"
        },
        {
          "name": "minReceived",
          "type": "uint256",
          "internalType": "uint256"
        }
      ],
      "stateMutability": "view"
    },
    {
      "type": "function",
      "name": "mailbox",
      "inputs": [],
      "outputs": [
        {
          "name": "",
          "type": "address",
          "internalType": "address"
        }
      ],
      "stateMutability": "view"
    },
    {
      "type": "event",
      "name": "IntentFulfilled",
      "inputs": [
        {
          "name": "intentId",
          "type": "bytes32",
          "indexed": false,
          "internalType": "bytes32"
        },
        {
          "name": "solver",
          "type": "address",
          "indexed": false,
          "internalType": "address"
        }
      ],
      "anonymous": false
    },
    {
      "type": "error",
      "name": "InsufficientTokenReceived",
      "inputs": [
        {
          "name": "user",
          "type": "address",
          "internalType": "address"
        },
        {
          "name": "balance",
          "type": "uint256",
          "internalType": "uint256"
        },
        {
          "name": "minReceived",
          "type": "uint256",
          "internalType": "uint256"
        }
      ]
    },
    {
      "type": "error",
      "name": "IntentAlreadyFulfilled",
      "inputs": [
        {
          "name": "intentId",
          "type": "bytes32",
          "internalType": "bytes32"
        }
      ]
    },
    {
      "type": "error",
      "name": "IntentExpired",
      "inputs": [
        {
          "name": "intentId",
          "type": "bytes32",
          "internalType": "bytes32"
        }
      ]
    },
    {
      "type": "error",
      "name": "InvalidDestinationChain",
      "inputs": [
        {
          "name": "destination",
          "type": "uint32",
          "internalType": "uint32"
        }
      ]
    },
    {
      "type": "error",
      "name": "InvalidOriginChain",
      "inputs": [
        {
          "name": "origin",
          "type": "uint32",
          "internalType": "uint32"
        }
      ]
    },
    {
      "type": "error",
      "name": "OnlyMailboxCanCall",
      "inputs": [
        {
          "name": "caller",
          "type": "address",
          "internalType": "address"
        }
      ]
    }
  ],
  "bytecode": {
    "object": "0x608034606f57601f6106b638819003918201601f19168301916001600160401b03831184841017607357808492602094604052833981010312606f57516001600160a01b03811690819003606f575f80546001600160a01b03191691909117905560405161062e90816100888239f35b5f80fd5b634e487b7160e01b5f52604160045260245ffdfe6080604081815260049182361015610015575f80fd5b5f3560e01c9081632b15ece01461036b5750806356d5d475146101265780639021578a146100ac578063d5438eae146100855763ed2ea54414610056575f80fd5b3461008157602036600319011261008157602091355f526002825260ff815f20541690519015158152f35b5f80fd5b5034610081575f366003190112610081575f5490516001600160a01b039091168152602090f35b5090346100815760203660031901126100815760e09181355f526001602052805f2060018060a01b03928382541693600183015416926002830154600384015491600563ffffffff948601549501549581519788526020880152860152818116606086015260201c16608084015260a083015260c0820152f35b5090606036600319011261008157803563ffffffff91828216809203610081576044359167ffffffffffffffff9081841161008157366023850112156100815783830135918211610081576024918401903683830111610081575f546001600160a01b039290831633036103565785905f60c08a516101a4816105a6565b828152826020820152828c8201528260608201528260808201528260a082015201520361010081126100815760e013610081578651956101e3876105a6565b6101ee848701610581565b87526101fc60448701610581565b60208801908152888801906064880135825261021a60848901610595565b9460608a0195865261022e60a48a01610595565b9460808b0195865260a08b019760c48b0135895261010460c08d019b60e48101358d5201359162066eee908181145f14610325575050858751166218a48e810361031057505b815f52600260205260ff8d5f2054166102fc575060059a9b82915f5260016020525f209b5116906bffffffffffffffffffffffff60a01b91828d5416178c5560018c01925116908254161790555160028901556003880192511667ffffffff000000008354925160201b169167ffffffffffffffff1916171790555190840155519101555f80f35b8c5163373d207960e01b8152808b01839052fd5b8d5163280f27cb60e21b8152808c0191909152fd5b6218a48e81036103415750868851169081036103105750610274565b8b91508e5191636c7d6a6f60e11b8352820152fd5b87516318eb575560e21b815233818701528490fd5b8284346100815781600319360112610081576001600160a01b0392813591602480358681169392919084900361008157845f5260209260018452865f206103b1826105a6565b88815416825288600182015416858301908152600282015489840152600382015463ffffffff908181166060860152871c166080840152600585830154928360a086015201549160c0840192835242101561056b57875f526002865260ff895f2054166105555751825189516370a0823160e01b808252918c1687820152918b169a90939091878187818f5afa90811561054b575f9161051e575b50835111610499577fd9033f0635d2f730e1f8385eaf46308e77de7a02d79526d9872ff7a6a291ef018a8a8a8a825f5260028152835f20600160ff198254161790558351928352820152a1005b91868b9794928b9694511692848751809a81938252868b8301525afa938415610514575f946104e3575b5051935163da5f153d60e01b815294850152830152604482015260649150fd5b90935086813d831161050d575b6104fa81836105d6565b81010312610081576064955192876104c3565b503d6104f0565b85513d5f823e3d90fd5b90508781813d8311610544575b61053581836105d6565b8101031261008157518c61044c565b503d61052b565b8b513d5f823e3d90fd5b885163373d207960e01b81528086018990528490fd5b8851636c49afa160e01b81528086018990528490fd5b35906001600160a01b038216820361008157565b359063ffffffff8216820361008157565b60e0810190811067ffffffffffffffff8211176105c257604052565b634e487b7160e01b5f52604160045260245ffd5b90601f8019910116810190811067ffffffffffffffff8211176105c25760405256fea2646970667358221220d557940395ca3ff2bc8593fb3f56e0e10d30752a25841a5e22681e38cae0acfd64736f6c63430008190033",
    "linkReferences": {}
  },
  "methodIdentifiers": {
    "fulfillIntent(bytes32,address)": "2b15ece0",
    "fulfilledIntents(bytes32)": "ed2ea544",
    "handle(uint32,bytes32,bytes)": "56d5d475",
    "intents(bytes32)": "9021578a",
    "mailbox()": "d5438eae"
  },
  "id": 27
}