{
  "abi": [
    {
      "type": "constructor",
      "inputs": [
        {
          "name": "_mailbox",
          "type": "address",
          "internalType": "address"
        },
        {
          "name": "_settlementContract",
          "type": "address",
          "internalType": "address"
        }
      ],
      "stateMutability": "nonpayable"
    },
    {
      "type": "function",
      "name": "ARBITRUM_SEPOLIA_CHAIN_ID",
      "inputs": [],
      "outputs": [
        {
          "name": "",
          "type": "uint256",
          "internalType": "uint256"
        }
      ],
      "stateMutability": "view"
    },
    {
      "type": "function",
      "name": "LIBERICHAIN_CHAIN_ID",
      "inputs": [],
      "outputs": [
        {
          "name": "",
          "type": "uint256",
          "internalType": "uint256"
        }
      ],
      "stateMutability": "view"
    },
    {
      "type": "function",
      "name": "addressToBytes32",
      "inputs": [
        {
          "name": "_addr",
          "type": "address",
          "internalType": "address"
        }
      ],
      "outputs": [
        {
          "name": "",
          "type": "bytes32",
          "internalType": "bytes32"
        }
      ],
      "stateMutability": "pure"
    },
    {
      "type": "function",
      "name": "mailbox",
      "inputs": [],
      "outputs": [
        {
          "name": "",
          "type": "address",
          "internalType": "contract IMailbox"
        }
      ],
      "stateMutability": "view"
    },
    {
      "type": "function",
      "name": "settlementContract",
      "inputs": [],
      "outputs": [
        {
          "name": "",
          "type": "address",
          "internalType": "address"
        }
      ],
      "stateMutability": "view"
    },
    {
      "type": "function",
      "name": "submitIntent",
      "inputs": [
        {
          "name": "intent",
          "type": "tuple",
          "internalType": "struct IntentSender.Intent",
          "components": [
            {
              "name": "user",
              "type": "address",
              "internalType": "address"
            },
            {
              "name": "token",
              "type": "address",
              "internalType": "address"
            },
            {
              "name": "amount",
              "type": "uint256",
              "internalType": "uint256"
            },
            {
              "name": "sourceChainId",
              "type": "uint32",
              "internalType": "uint32"
            },
            {
              "name": "destinationChainId",
              "type": "uint32",
              "internalType": "uint32"
            },
            {
              "name": "deadline",
              "type": "uint256",
              "internalType": "uint256"
            },
            {
              "name": "minReceived",
              "type": "uint256",
              "internalType": "uint256"
            }
          ]
        }
      ],
      "outputs": [],
      "stateMutability": "nonpayable"
    },
    {
      "type": "event",
      "name": "IntentSubmitted",
      "inputs": [
        {
          "name": "intentId",
          "type": "bytes32",
          "indexed": true,
          "internalType": "bytes32"
        },
        {
          "name": "intent",
          "type": "tuple",
          "indexed": false,
          "internalType": "struct IntentSender.Intent",
          "components": [
            {
              "name": "user",
              "type": "address",
              "internalType": "address"
            },
            {
              "name": "token",
              "type": "address",
              "internalType": "address"
            },
            {
              "name": "amount",
              "type": "uint256",
              "internalType": "uint256"
            },
            {
              "name": "sourceChainId",
              "type": "uint32",
              "internalType": "uint32"
            },
            {
              "name": "destinationChainId",
              "type": "uint32",
              "internalType": "uint32"
            },
            {
              "name": "deadline",
              "type": "uint256",
              "internalType": "uint256"
            },
            {
              "name": "minReceived",
              "type": "uint256",
              "internalType": "uint256"
            }
          ]
        }
      ],
      "anonymous": false
    },
    {
      "type": "error",
      "name": "IntentExpired",
      "inputs": []
    },
    {
      "type": "error",
      "name": "InvalidMinReceived",
      "inputs": []
    },
    {
      "type": "error",
      "name": "InvalidSourceChain",
      "inputs": []
    }
  ],
  "bytecode": {
    "object": "0x608034608557601f61056b38819003918201601f19168301916001600160401b038311848410176089578084926040948552833981010312608557604b6020604583609d565b9201609d565b5f80546001600160a01b039384166001600160a01b031991821617909155600180549290931691161790556040516104ba90816100b18239f35b5f80fd5b634e487b7160e01b5f52604160045260245ffd5b51906001600160a01b038216820360855756fe6080806040526004361015610012575f80fd5b5f3560e01c9081631fab59fb14610401575080634612b553146103e457806382c947b7146103b8578063c77ea822146100b1578063d5438eae1461008a5763ea42418b1461005e575f80fd5b34610086575f366003190112610086576001546040516001600160a01b039091168152602090f35b5f80fd5b34610086575f366003190112610086575f546040516001600160a01b039091168152602090f35b346100865760e0366003190112610086574260a43511156103a65762066eee63ffffffff6100dd610432565b16036103945760c43515610382576100f3610458565b63ffffffff61010061046e565b81610109610432565b610111610445565b926040519560018060a01b0316602087015260018060a01b0316604086015260443560608601521660808401521660a082015260a43560c082015260c43560e082015260e08152610100810181811067ffffffffffffffff82111761035b57604081905281516020830120916001600160a01b0361018d61041c565b1682526024356001600160a01b038116908190036100865761012082015260443561014082015260643563ffffffff81168091036100865761016082015260843563ffffffff81168091036100865783928260e0926101807f256f2a3e33d76b4efbb0bcdc2b198980e348ce087a4193c788436c5518678f3795015260a4356101a08201526101c060c435910152a2610224610458565b9063ffffffff61023261046e565b8161023b610432565b610243610445565b926040519660018060a01b0316602088015260018060a01b0316604087015260443560608701521660808501521660a083015260a43560c083015260c43560e0830152610100820152610100815261012081019080821067ffffffffffffffff83111761035b5781601f9260405260208160018060a01b035f541660018060a01b036001541663fa31de0160e01b83526218a48e6101248701526101448601526060610164860152815f608487805180610184830152836101a4828a85018286015e83830101528a199a018a1681010301925af180156103775761032357005b6020923d60201161036f575b61012067ffffffffffffffff91601f86011684010191821091111761035b576020918101031261008657005b634e487b7160e01b5f52604160045260245ffd5b3d935061032f565b6040513d5f823e3d90fd5b6040516357c0eded60e11b8152600490fd5b604051639284b19760e01b8152600490fd5b604051631022c88d60e21b8152600490fd5b346100865760203660031901126100865760206001600160a01b036103db61041c565b16604051908152f35b34610086575f3660031901126100865760206040516218a48e8152f35b34610086575f366003190112610086578062066eee60209252f35b600435906001600160a01b038216820361008657565b60643563ffffffff811681036100865790565b60843563ffffffff811681036100865790565b6004356001600160a01b03811681036100865790565b6024356001600160a01b0381168103610086579056fea2646970667358221220ce9517478d09664ba3a72ade3f2a415ef0fa53de54bb15c1348e1035f291e6cb64736f6c63430008190033",
    "linkReferences": {}
  },
  "methodIdentifiers": {
    "ARBITRUM_SEPOLIA_CHAIN_ID()": "1fab59fb",
    "LIBERICHAIN_CHAIN_ID()": "4612b553",
    "addressToBytes32(address)": "82c947b7",
    "mailbox()": "d5438eae",
    "settlementContract()": "ea42418b",
    "submitIntent((address,address,uint256,uint32,uint32,uint256,uint256))": "c77ea822"
  },
  "id": 26
}