{
  "abi": [
    {
      "type": "constructor",
      "inputs": [
        {
          "name": "_mailbox",
          "type": "address",
          "internalType": "address"
        },
        {
          "name": "_settlementContract",
          "type": "address",
          "internalType": "address"
        },
        {
          "name": "_liberichainChainId",
          "type": "uint256",
          "internalType": "uint256"
        }
      ],
      "stateMutability": "nonpayable"
    },
    {
      "type": "function",
      "name": "addressToBytes32",
      "inputs": [
        {
          "name": "_addr",
          "type": "address",
          "internalType": "address"
        }
      ],
      "outputs": [
        {
          "name": "",
          "type": "bytes32",
          "internalType": "bytes32"
        }
      ],
      "stateMutability": "pure"
    },
    {
      "type": "function",
      "name": "liberichainChainId",
      "inputs": [],
      "outputs": [
        {
          "name": "",
          "type": "uint256",
          "internalType": "uint256"
        }
      ],
      "stateMutability": "view"
    },
    {
      "type": "function",
      "name": "mailbox",
      "inputs": [],
      "outputs": [
        {
          "name": "",
          "type": "address",
          "internalType": "contract IMailbox"
        }
      ],
      "stateMutability": "view"
    },
    {
      "type": "function",
      "name": "settlementContract",
      "inputs": [],
      "outputs": [
        {
          "name": "",
          "type": "address",
          "internalType": "address"
        }
      ],
      "stateMutability": "view"
    },
    {
      "type": "function",
      "name": "submitIntent",
      "inputs": [
        {
          "name": "intent",
          "type": "tuple",
          "internalType": "struct IntentSender.Intent",
          "components": [
            {
              "name": "user",
              "type": "address",
              "internalType": "address"
            },
            {
              "name": "token",
              "type": "address",
              "internalType": "address"
            },
            {
              "name": "amount",
              "type": "uint256",
              "internalType": "uint256"
            },
            {
              "name": "sourceChainId",
              "type": "uint256",
              "internalType": "uint256"
            },
            {
              "name": "destinationChainId",
              "type": "uint256",
              "internalType": "uint256"
            },
            {
              "name": "deadline",
              "type": "uint256",
              "internalType": "uint256"
            },
            {
              "name": "minReceived",
              "type": "uint256",
              "internalType": "uint256"
            }
          ]
        }
      ],
      "outputs": [],
      "stateMutability": "nonpayable"
    },
    {
      "type": "event",
      "name": "IntentSubmitted",
      "inputs": [
        {
          "name": "intentId",
          "type": "bytes32",
          "indexed": false,
          "internalType": "bytes32"
        },
        {
          "name": "intent",
          "type": "tuple",
          "indexed": false,
          "internalType": "struct IntentSender.Intent",
          "components": [
            {
              "name": "user",
              "type": "address",
              "internalType": "address"
            },
            {
              "name": "token",
              "type": "address",
              "internalType": "address"
            },
            {
              "name": "amount",
              "type": "uint256",
              "internalType": "uint256"
            },
            {
              "name": "sourceChainId",
              "type": "uint256",
              "internalType": "uint256"
            },
            {
              "name": "destinationChainId",
              "type": "uint256",
              "internalType": "uint256"
            },
            {
              "name": "deadline",
              "type": "uint256",
              "internalType": "uint256"
            },
            {
              "name": "minReceived",
              "type": "uint256",
              "internalType": "uint256"
            }
          ]
        }
      ],
      "anonymous": false
    },
    {
      "type": "error",
      "name": "IntentExpired",
      "inputs": []
    },
    {
      "type": "error",
      "name": "InvalidSourceChain",
      "inputs": []
    }
  ],
  "bytecode": {
    "object": "0x608060405234801561000f575f80fd5b50604051610a5e380380610a5e83398181016040528101906100319190610150565b825f806101000a81548173ffffffffffffffffffffffffffffffffffffffff021916908373ffffffffffffffffffffffffffffffffffffffff1602179055508160015f6101000a81548173ffffffffffffffffffffffffffffffffffffffff021916908373ffffffffffffffffffffffffffffffffffffffff160217905550806002819055505050506101a0565b5f80fd5b5f73ffffffffffffffffffffffffffffffffffffffff82169050919050565b5f6100ec826100c3565b9050919050565b6100fc816100e2565b8114610106575f80fd5b50565b5f81519050610117816100f3565b92915050565b5f819050919050565b61012f8161011d565b8114610139575f80fd5b50565b5f8151905061014a81610126565b92915050565b5f805f60608486031215610167576101666100bf565b5b5f61017486828701610109565b935050602061018586828701610109565b92505060406101968682870161013c565b9150509250925092565b6108b1806101ad5f395ff3fe608060405234801561000f575f80fd5b5060043610610055575f3560e01c806382c947b714610059578063bfc3095814610089578063c566382c146100a7578063d5438eae146100c3578063ea42418b146100e1575b5f80fd5b610073600480360381019061006e91906103e2565b6100ff565b6040516100809190610425565b60405180910390f35b610091610120565b60405161009e9190610456565b60405180910390f35b6100c160048036038101906100bc9190610491565b610126565b005b6100cb61033c565b6040516100d89190610517565b60405180910390f35b6100e961035f565b6040516100f6919061053f565b60405180910390f35b5f8173ffffffffffffffffffffffffffffffffffffffff165f1b9050919050565b60025481565b428160a0013511610163576040517f408b223400000000000000000000000000000000000000000000000000000000815260040160405180910390fd5b468160600135146101a0576040517f9284b19700000000000000000000000000000000000000000000000000000000815260040160405180910390fd5b5f81426040516020016101b4929190610690565b6040516020818303038152906040528051906020012090507f83d6f71fd6315822d180e3c0f5c8e939b6c336b51bc4271d195d0515eff92dc281836040516101fd9291906106b8565b60405180910390a15f825f01602081019061021891906103e2565b83602001602081019061022b91906103e2565b8460400135856060013586608001358760a001358860c001358860405160200161025c9897969594939291906106e0565b60405160208183030381529060405290505f8054906101000a900473ffffffffffffffffffffffffffffffffffffffff1673ffffffffffffffffffffffffffffffffffffffff1663fa31de015f6002546102d660015f9054906101000a900473ffffffffffffffffffffffffffffffffffffffff166100ff565b856040518563ffffffff1660e01b81526004016102f5939291906107ea565b60206040518083038185885af1158015610311573d5f803e3d5ffd5b50505050506040513d601f19601f820116820180604052508101906103369190610850565b50505050565b5f8054906101000a900473ffffffffffffffffffffffffffffffffffffffff1681565b60015f9054906101000a900473ffffffffffffffffffffffffffffffffffffffff1681565b5f80fd5b5f73ffffffffffffffffffffffffffffffffffffffff82169050919050565b5f6103b182610388565b9050919050565b6103c1816103a7565b81146103cb575f80fd5b50565b5f813590506103dc816103b8565b92915050565b5f602082840312156103f7576103f6610384565b5b5f610404848285016103ce565b91505092915050565b5f819050919050565b61041f8161040d565b82525050565b5f6020820190506104385f830184610416565b92915050565b5f819050919050565b6104508161043e565b82525050565b5f6020820190506104695f830184610447565b92915050565b5f80fd5b5f60e082840312156104885761048761046f565b5b81905092915050565b5f60e082840312156104a6576104a5610384565b5b5f6104b384828501610473565b91505092915050565b5f819050919050565b5f6104df6104da6104d584610388565b6104bc565b610388565b9050919050565b5f6104f0826104c5565b9050919050565b5f610501826104e6565b9050919050565b610511816104f7565b82525050565b5f60208201905061052a5f830184610508565b92915050565b610539816103a7565b82525050565b5f6020820190506105525f830184610530565b92915050565b5f61056660208401846103ce565b905092915050565b610577816103a7565b82525050565b6105868161043e565b8114610590575f80fd5b50565b5f813590506105a18161057d565b92915050565b5f6105b56020840184610593565b905092915050565b6105c68161043e565b82525050565b60e082016105dc5f830183610558565b6105e85f85018261056e565b506105f66020830183610558565b610603602085018261056e565b5061061160408301836105a7565b61061e60408501826105bd565b5061062c60608301836105a7565b61063960608501826105bd565b5061064760808301836105a7565b61065460808501826105bd565b5061066260a08301836105a7565b61066f60a08501826105bd565b5061067d60c08301836105a7565b61068a60c08501826105bd565b50505050565b5f610100820190506106a45f8301856105cc565b6106b160e0830184610447565b9392505050565b5f610100820190506106cc5f830185610416565b6106d960208301846105cc565b9392505050565b5f610100820190506106f45f83018b610530565b610701602083018a610530565b61070e6040830189610447565b61071b6060830188610447565b6107286080830187610447565b61073560a0830186610447565b61074260c0830185610447565b61074f60e0830184610416565b9998505050505050505050565b5f63ffffffff82169050919050565b6107748161075c565b82525050565b5f81519050919050565b5f82825260208201905092915050565b8281835e5f83830152505050565b5f601f19601f8301169050919050565b5f6107bc8261077a565b6107c68185610784565b93506107d6818560208601610794565b6107df816107a2565b840191505092915050565b5f6060820190506107fd5f83018661076b565b61080a6020830185610416565b818103604083015261081c81846107b2565b9050949350505050565b61082f8161040d565b8114610839575f80fd5b50565b5f8151905061084a81610826565b92915050565b5f6020828403121561086557610864610384565b5b5f6108728482850161083c565b9150509291505056fea2646970667358221220727fb0ea31189924affb23e78b1ce504b84586ec205a4447fe5c1550668cfbe364736f6c63430008190033",
    "linkReferences": {}
  },
  "methodIdentifiers": {
    "addressToBytes32(address)": "82c947b7",
    "liberichainChainId()": "bfc30958",
    "mailbox()": "d5438eae",
    "settlementContract()": "ea42418b",
    "submitIntent((address,address,uint256,uint256,uint256,uint256,uint256))": "c566382c"
  },
  "id": 20
}