{
  "abi": [
    {
      "type": "constructor",
      "inputs": [
        {
          "name": "_mailbox",
          "type": "address",
          "internalType": "address"
        }
      ],
      "stateMutability": "nonpayable"
    },
    {
      "type": "function",
      "name": "fulfillIntent",
      "inputs": [
        {
          "name": "intentId",
          "type": "bytes32",
          "internalType": "bytes32"
        },
        {
          "name": "solver",
          "type": "address",
          "internalType": "address"
        }
      ],
      "outputs": [],
      "stateMutability": "nonpayable"
    },
    {
      "type": "function",
      "name": "fulfilledIntents",
      "inputs": [
        {
          "name": "",
          "type": "bytes32",
          "internalType": "bytes32"
        }
      ],
      "outputs": [
        {
          "name": "",
          "type": "bool",
          "internalType": "bool"
        }
      ],
      "stateMutability": "view"
    },
    {
      "type": "function",
      "name": "handle",
      "inputs": [
        {
          "name": "_origin",
          "type": "uint32",
          "internalType": "uint32"
        },
        {
          "name": "_sender",
          "type": "bytes32",
          "internalType": "bytes32"
        },
        {
          "name": "_message",
          "type": "bytes",
          "internalType": "bytes"
        }
      ],
      "outputs": [],
      "stateMutability": "payable"
    },
    {
      "type": "function",
      "name": "intents",
      "inputs": [
        {
          "name": "",
          "type": "bytes32",
          "internalType": "bytes32"
        }
      ],
      "outputs": [
        {
          "name": "user",
          "type": "address",
          "internalType": "address"
        },
        {
          "name": "token",
          "type": "address",
          "internalType": "address"
        },
        {
          "name": "amount",
          "type": "uint256",
          "internalType": "uint256"
        },
        {
          "name": "sourceChainId",
          "type": "uint256",
          "internalType": "uint256"
        },
        {
          "name": "destinationChainId",
          "type": "uint256",
          "internalType": "uint256"
        },
        {
          "name": "deadline",
          "type": "uint256",
          "internalType": "uint256"
        },
        {
          "name": "minReceived",
          "type": "uint256",
          "internalType": "uint256"
        }
      ],
      "stateMutability": "view"
    },
    {
      "type": "function",
      "name": "mailbox",
      "inputs": [],
      "outputs": [
        {
          "name": "",
          "type": "address",
          "internalType": "address"
        }
      ],
      "stateMutability": "view"
    },
    {
      "type": "event",
      "name": "IntentFulfilled",
      "inputs": [
        {
          "name": "intentId",
          "type": "bytes32",
          "indexed": false,
          "internalType": "bytes32"
        },
        {
          "name": "solver",
          "type": "address",
          "indexed": false,
          "internalType": "address"
        }
      ],
      "anonymous": false
    },
    {
      "type": "error",
      "name": "InsufficientTokenReceived",
      "inputs": [
        {
          "name": "user",
          "type": "address",
          "internalType": "address"
        },
        {
          "name": "balance",
          "type": "uint256",
          "internalType": "uint256"
        },
        {
          "name": "minReceived",
          "type": "uint256",
          "internalType": "uint256"
        }
      ]
    },
    {
      "type": "error",
      "name": "IntentAlreadyFulfilled",
      "inputs": [
        {
          "name": "intentId",
          "type": "bytes32",
          "internalType": "bytes32"
        }
      ]
    },
    {
      "type": "error",
      "name": "IntentExpired",
      "inputs": [
        {
          "name": "intentId",
          "type": "bytes32",
          "internalType": "bytes32"
        }
      ]
    },
    {
      "type": "error",
      "name": "InvalidOriginChain",
      "inputs": [
        {
          "name": "origin",
          "type": "uint32",
          "internalType": "uint32"
        }
      ]
    },
    {
      "type": "error",
      "name": "OnlyMailboxCanCall",
      "inputs": [
        {
          "name": "caller",
          "type": "address",
          "internalType": "address"
        }
      ]
    }
  ],
  "bytecode": {
    "object": "0x608060405234801561000f575f80fd5b50604051610e3e380380610e3e833981810160405281019061003191906100d4565b805f806101000a81548173ffffffffffffffffffffffffffffffffffffffff021916908373ffffffffffffffffffffffffffffffffffffffff160217905550506100ff565b5f80fd5b5f73ffffffffffffffffffffffffffffffffffffffff82169050919050565b5f6100a38261007a565b9050919050565b6100b381610099565b81146100bd575f80fd5b50565b5f815190506100ce816100aa565b92915050565b5f602082840312156100e9576100e8610076565b5b5f6100f6848285016100c0565b91505092915050565b610d328061010c5f395ff3fe608060405260043610610049575f3560e01c80632b15ece01461004d57806356d5d475146100755780639021578a14610091578063d5438eae146100d3578063ed2ea544146100fd575b5f80fd5b348015610058575f80fd5b50610073600480360381019061006e9190610817565b610139565b005b61008f600480360381019061008a91906108ef565b610493565b005b34801561009c575f80fd5b506100b760048036038101906100b29190610960565b6106bd565b6040516100ca97969594939291906109b2565b60405180910390f35b3480156100de575f80fd5b506100e7610739565b6040516100f49190610a1f565b60405180910390f35b348015610108575f80fd5b50610123600480360381019061011e9190610960565b61075c565b6040516101309190610a52565b60405180910390f35b5f60015f8481526020019081526020015f206040518060e00160405290815f82015f9054906101000a900473ffffffffffffffffffffffffffffffffffffffff1673ffffffffffffffffffffffffffffffffffffffff1673ffffffffffffffffffffffffffffffffffffffff168152602001600182015f9054906101000a900473ffffffffffffffffffffffffffffffffffffffff1673ffffffffffffffffffffffffffffffffffffffff1673ffffffffffffffffffffffffffffffffffffffff168152602001600282015481526020016003820154815260200160048201548152602001600582015481526020016006820154815250509050428160a001511161027b57826040517f6c49afa10000000000000000000000000000000000000000000000000000000081526004016102729190610a7a565b60405180910390fd5b60025f8481526020019081526020015f205f9054906101000a900460ff16156102db57826040517f373d20790000000000000000000000000000000000000000000000000000000081526004016102d29190610a7a565b60405180910390fd5b5f816020015190508160c001518173ffffffffffffffffffffffffffffffffffffffff166370a08231845f01516040518263ffffffff1660e01b81526004016103249190610a1f565b602060405180830381865afa15801561033f573d5f803e3d5ffd5b505050506040513d601f19601f820116820180604052508101906103639190610abd565b101561042b57815f01518173ffffffffffffffffffffffffffffffffffffffff166370a08231845f01516040518263ffffffff1660e01b81526004016103a99190610a1f565b602060405180830381865afa1580156103c4573d5f803e3d5ffd5b505050506040513d601f19601f820116820180604052508101906103e89190610abd565b8360c001516040517fda5f153d00000000000000000000000000000000000000000000000000000000815260040161042293929190610ae8565b60405180910390fd5b600160025f8681526020019081526020015f205f6101000a81548160ff0219169083151502179055507fd9033f0635d2f730e1f8385eaf46308e77de7a02d79526d9872ff7a6a291ef018484604051610485929190610b1d565b60405180910390a150505050565b5f8054906101000a900473ffffffffffffffffffffffffffffffffffffffff1673ffffffffffffffffffffffffffffffffffffffff163373ffffffffffffffffffffffffffffffffffffffff161461052257336040517f63ad5d540000000000000000000000000000000000000000000000000000000081526004016105199190610a1f565b60405180910390fd5b6218a48e8463ffffffff161461056f57836040517fd8fad4de0000000000000000000000000000000000000000000000000000000081526004016105669190610b53565b60405180910390fd5b5f8083838101906105809190610cbd565b9150915060025f8281526020019081526020015f205f9054906101000a900460ff16156105e457806040517f373d20790000000000000000000000000000000000000000000000000000000081526004016105db9190610a7a565b60405180910390fd5b8160015f8381526020019081526020015f205f820151815f015f6101000a81548173ffffffffffffffffffffffffffffffffffffffff021916908373ffffffffffffffffffffffffffffffffffffffff1602179055506020820151816001015f6101000a81548173ffffffffffffffffffffffffffffffffffffffff021916908373ffffffffffffffffffffffffffffffffffffffff16021790555060408201518160020155606082015181600301556080820151816004015560a0820151816005015560c08201518160060155905050505050505050565b6001602052805f5260405f205f91509050805f015f9054906101000a900473ffffffffffffffffffffffffffffffffffffffff1690806001015f9054906101000a900473ffffffffffffffffffffffffffffffffffffffff16908060020154908060030154908060040154908060050154908060060154905087565b5f8054906101000a900473ffffffffffffffffffffffffffffffffffffffff1681565b6002602052805f5260405f205f915054906101000a900460ff1681565b5f604051905090565b5f80fd5b5f80fd5b5f819050919050565b61079c8161078a565b81146107a6575f80fd5b50565b5f813590506107b781610793565b92915050565b5f73ffffffffffffffffffffffffffffffffffffffff82169050919050565b5f6107e6826107bd565b9050919050565b6107f6816107dc565b8114610800575f80fd5b50565b5f81359050610811816107ed565b92915050565b5f806040838503121561082d5761082c610782565b5b5f61083a858286016107a9565b925050602061084b85828601610803565b9150509250929050565b5f63ffffffff82169050919050565b61086d81610855565b8114610877575f80fd5b50565b5f8135905061088881610864565b92915050565b5f80fd5b5f80fd5b5f80fd5b5f8083601f8401126108af576108ae61088e565b5b8235905067ffffffffffffffff8111156108cc576108cb610892565b5b6020830191508360018202830111156108e8576108e7610896565b5b9250929050565b5f805f806060858703121561090757610906610782565b5b5f6109148782880161087a565b9450506020610925878288016107a9565b935050604085013567ffffffffffffffff81111561094657610945610786565b5b6109528782880161089a565b925092505092959194509250565b5f6020828403121561097557610974610782565b5b5f610982848285016107a9565b91505092915050565b610994816107dc565b82525050565b5f819050919050565b6109ac8161099a565b82525050565b5f60e0820190506109c55f83018a61098b565b6109d2602083018961098b565b6109df60408301886109a3565b6109ec60608301876109a3565b6109f960808301866109a3565b610a0660a08301856109a3565b610a1360c08301846109a3565b98975050505050505050565b5f602082019050610a325f83018461098b565b92915050565b5f8115159050919050565b610a4c81610a38565b82525050565b5f602082019050610a655f830184610a43565b92915050565b610a748161078a565b82525050565b5f602082019050610a8d5f830184610a6b565b92915050565b610a9c8161099a565b8114610aa6575f80fd5b50565b5f81519050610ab781610a93565b92915050565b5f60208284031215610ad257610ad1610782565b5b5f610adf84828501610aa9565b91505092915050565b5f606082019050610afb5f83018661098b565b610b0860208301856109a3565b610b1560408301846109a3565b949350505050565b5f604082019050610b305f830185610a6b565b610b3d602083018461098b565b9392505050565b610b4d81610855565b82525050565b5f602082019050610b665f830184610b44565b92915050565b5f80fd5b5f601f19601f8301169050919050565b7f4e487b71000000000000000000000000000000000000000000000000000000005f52604160045260245ffd5b610bb682610b70565b810181811067ffffffffffffffff82111715610bd557610bd4610b80565b5b80604052505050565b5f610be7610779565b9050610bf38282610bad565b919050565b5f81359050610c0681610a93565b92915050565b5f60e08284031215610c2157610c20610b6c565b5b610c2b60e0610bde565b90505f610c3a84828501610803565b5f830152506020610c4d84828501610803565b6020830152506040610c6184828501610bf8565b6040830152506060610c7584828501610bf8565b6060830152506080610c8984828501610bf8565b60808301525060a0610c9d84828501610bf8565b60a08301525060c0610cb184828501610bf8565b60c08301525092915050565b5f806101008385031215610cd457610cd3610782565b5b5f610ce185828601610c0c565b92505060e0610cf2858286016107a9565b915050925092905056fea26469706673582212206477e81cca5b7f8e7784848690adbef1943913d351dea53d1e33f7e17fcbf11264736f6c63430008190033",
    "linkReferences": {}
  },
  "methodIdentifiers": {
    "fulfillIntent(bytes32,address)": "2b15ece0",
    "fulfilledIntents(bytes32)": "ed2ea544",
    "handle(uint32,bytes32,bytes)": "56d5d475",
    "intents(bytes32)": "9021578a",
    "mailbox()": "d5438eae"
  },
  "id": 21
}